{
  "contractName": "Account",
  "abi": [
    {
      "constant": true,
      "inputs": [],
      "name": "TaxOutputAddress",
      "outputs": [
        {
          "name": "",
          "type": "address"
        }
      ],
      "payable": false,
      "stateMutability": "view",
      "type": "function"
    },
    {
      "constant": true,
      "inputs": [],
      "name": "TimeTillReward",
      "outputs": [
        {
          "name": "",
          "type": "uint256"
        }
      ],
      "payable": false,
      "stateMutability": "view",
      "type": "function"
    },
    {
      "constant": true,
      "inputs": [],
      "name": "AccountStatus",
      "outputs": [
        {
          "name": "",
          "type": "uint8"
        }
      ],
      "payable": false,
      "stateMutability": "view",
      "type": "function"
    },
    {
      "constant": true,
      "inputs": [
        {
          "name": "",
          "type": "address"
        }
      ],
      "name": "DelegatePermissions",
      "outputs": [
        {
          "name": "",
          "type": "uint8"
        }
      ],
      "payable": false,
      "stateMutability": "view",
      "type": "function"
    },
    {
      "constant": true,
      "inputs": [],
      "name": "PayoutFrequency",
      "outputs": [
        {
          "name": "",
          "type": "uint256"
        }
      ],
      "payable": false,
      "stateMutability": "view",
      "type": "function"
    },
    {
      "constant": true,
      "inputs": [],
      "name": "NetBalance",
      "outputs": [
        {
          "name": "",
          "type": "uint256"
        }
      ],
      "payable": false,
      "stateMutability": "view",
      "type": "function"
    },
    {
      "constant": true,
      "inputs": [],
      "name": "RewardSize",
      "outputs": [
        {
          "name": "",
          "type": "uint256"
        }
      ],
      "payable": false,
      "stateMutability": "view",
      "type": "function"
    },
    {
      "inputs": [
        {
          "name": "employeeId",
          "type": "address"
        },
        {
          "name": "accountType",
          "type": "uint8"
        }
      ],
      "payable": false,
      "stateMutability": "nonpayable",
      "type": "constructor"
    },
    {
      "payable": true,
      "stateMutability": "payable",
      "type": "fallback"
    },
    {
      "constant": false,
      "inputs": [
        {
          "name": "rewardIncrement",
          "type": "uint256"
        }
      ],
      "name": "increaseRewardSize",
      "outputs": [],
      "payable": false,
      "stateMutability": "nonpayable",
      "type": "function"
    },
    {
      "constant": false,
      "inputs": [
        {
          "name": "rewardIncrement",
          "type": "uint256"
        }
      ],
      "name": "decreaseRewardSize",
      "outputs": [],
      "payable": false,
      "stateMutability": "nonpayable",
      "type": "function"
    },
    {
      "constant": false,
      "inputs": [
        {
          "name": "payoutFrequencyIncrement",
          "type": "uint256"
        }
      ],
      "name": "increasePayoutFrequency",
      "outputs": [],
      "payable": false,
      "stateMutability": "nonpayable",
      "type": "function"
    },
    {
      "constant": false,
      "inputs": [
        {
          "name": "payoutFrequencyIncrement",
          "type": "uint256"
        }
      ],
      "name": "decreasePayoutFrequency",
      "outputs": [],
      "payable": false,
      "stateMutability": "nonpayable",
      "type": "function"
    },
    {
      "constant": false,
      "inputs": [
        {
          "name": "thirdPartyAddress",
          "type": "address"
        }
      ],
      "name": "removeAllDelegatePermissions",
      "outputs": [],
      "payable": false,
      "stateMutability": "nonpayable",
      "type": "function"
    },
    {
      "constant": false,
      "inputs": [
        {
          "name": "thirdPartyAddress",
          "type": "address"
        }
      ],
      "name": "permitToContributiveOnly",
      "outputs": [],
      "payable": false,
      "stateMutability": "nonpayable",
      "type": "function"
    },
    {
      "constant": false,
      "inputs": [
        {
          "name": "thirdPartyAddress",
          "type": "address"
        }
      ],
      "name": "permitToAdmistrative",
      "outputs": [],
      "payable": false,
      "stateMutability": "nonpayable",
      "type": "function"
    },
    {
      "constant": false,
      "inputs": [],
      "name": "closeAccount",
      "outputs": [],
      "payable": false,
      "stateMutability": "nonpayable",
      "type": "function"
    },
    {
      "constant": false,
      "inputs": [
        {
          "name": "recieverAddress",
          "type": "address"
        },
        {
          "name": "amount",
          "type": "uint256"
        }
      ],
      "name": "transferFunds",
      "outputs": [],
      "payable": false,
      "stateMutability": "nonpayable",
      "type": "function"
    }
  ],
  "bytecode": "0x608060405234801561001057600080fd5b50604051604080610b848339810180604052604081101561003057600080fd5b810190808051906020019092919080519060200190929190505050306000806101000a81548173ffffffffffffffffffffffffffffffffffffffff021916908373ffffffffffffffffffffffffffffffffffffffff16021790555081600160006101000a81548173ffffffffffffffffffffffffffffffffffffffff021916908373ffffffffffffffffffffffffffffffffffffffff1602179055506001600860006101000a81548160ff021916908360018111156100eb57fe5b021790555080600860016101000a81548160ff0219169083600481111561010e57fe5b02179055505050610a60806101246000396000f3fe6080604052600436106100f35760003560e01c806383be1bf11161008a578063a98521a911610059578063a98521a9146103fd578063df50e19d1461044e578063dfd44a9514610479578063ebd2a864146104b4576100f3565b806383be1bf1146102fb578063990dc9db1461034c5780639aee2e9a146103a75780639e2c1b16146103d2576100f3565b80636dd22fc6116100c65780636dd22fc6146101fb5780636fd7eb61146102125780637d34602d146102855780637d57daad146102c0576100f3565b806326107a381461010557806326c698011461015c57806339bfba7e14610187578063463da8be146101c2575b34600460008282540192505081905550005b34801561011157600080fd5b5061011a610505565b604051808273ffffffffffffffffffffffffffffffffffffffff1673ffffffffffffffffffffffffffffffffffffffff16815260200191505060405180910390f35b34801561016857600080fd5b5061017161052b565b6040518082815260200191505060405180910390f35b34801561019357600080fd5b506101c0600480360360208110156101aa57600080fd5b8101908080359060200190929190505050610531565b005b3480156101ce57600080fd5b506101d761054f565b604051808260018111156101e757fe5b60ff16815260200191505060405180910390f35b34801561020757600080fd5b50610210610562565b005b34801561021e57600080fd5b506102616004803603602081101561023557600080fd5b81019080803573ffffffffffffffffffffffffffffffffffffffff16906020019092919050505061064b565b6040518082600281111561027157fe5b60ff16815260200191505060405180910390f35b34801561029157600080fd5b506102be600480360360208110156102a857600080fd5b810190808035906020019092919050505061066b565b005b3480156102cc57600080fd5b506102f9600480360360208110156102e357600080fd5b8101908080359060200190929190505050610689565b005b34801561030757600080fd5b5061034a6004803603602081101561031e57600080fd5b81019080803573ffffffffffffffffffffffffffffffffffffffff1690602001909291905050506106a7565b005b34801561035857600080fd5b506103a56004803603604081101561036f57600080fd5b81019080803573ffffffffffffffffffffffffffffffffffffffff16906020019092919080359060200190929190505050610776565b005b3480156103b357600080fd5b506103bc610835565b6040518082815260200191505060405180910390f35b3480156103de57600080fd5b506103e761083b565b6040518082815260200191505060405180910390f35b34801561040957600080fd5b5061044c6004803603602081101561042057600080fd5b81019080803573ffffffffffffffffffffffffffffffffffffffff169060200190929190505050610841565b005b34801561045a57600080fd5b50610463610910565b6040518082815260200191505060405180910390f35b34801561048557600080fd5b506104b26004803603602081101561049c57600080fd5b8101908080359060200190929190505050610916565b005b3480156104c057600080fd5b50610503600480360360208110156104d757600080fd5b81019080803573ffffffffffffffffffffffffffffffffffffffff169060200190929190505050610934565b005b600260009054906101000a900473ffffffffffffffffffffffffffffffffffffffff1681565b60055481565b61054681600654610a0390919063ffffffff16565b60068190555050565b600860009054906101000a900460ff1681565b600160009054906101000a900473ffffffffffffffffffffffffffffffffffffffff1673ffffffffffffffffffffffffffffffffffffffff163373ffffffffffffffffffffffffffffffffffffffff1614610625576040517f08c379a00000000000000000000000000000000000000000000000000000000081526004018080602001828103825260158152602001807f696e76616c696420617574686f7269736174696f6e000000000000000000000081525060200191505060405180910390fd5b6000600860006101000a81548160ff0219169083600181111561064457fe5b0217905550565b60036020528060005260406000206000915054906101000a900460ff1681565b61068081600754610a0390919063ffffffff16565b60078190555050565b61069e81600754610a1d90919063ffffffff16565b60078190555050565b600060028111156106b457fe5b600360008373ffffffffffffffffffffffffffffffffffffffff1673ffffffffffffffffffffffffffffffffffffffff16815260200190815260200160002060009054906101000a900460ff16600281111561070c57fe5b14610773576000600360008373ffffffffffffffffffffffffffffffffffffffff1673ffffffffffffffffffffffffffffffffffffffff16815260200190815260200160002060006101000a81548160ff0219169083600281111561076d57fe5b02179055505b50565b600160009054906101000a900473ffffffffffffffffffffffffffffffffffffffff1673ffffffffffffffffffffffffffffffffffffffff163373ffffffffffffffffffffffffffffffffffffffff161480156107d4575080600454105b1561083157806004600082825403925050819055508173ffffffffffffffffffffffffffffffffffffffff166108fc829081150290604051600060405180830381858888f1935050505015801561082f573d6000803e3d6000fd5b505b5050565b60075481565b60045481565b6000600281111561084e57fe5b600360008373ffffffffffffffffffffffffffffffffffffffff1673ffffffffffffffffffffffffffffffffffffffff16815260200190815260200160002060009054906101000a900460ff1660028111156108a657fe5b1461090d576000600360008373ffffffffffffffffffffffffffffffffffffffff1673ffffffffffffffffffffffffffffffffffffffff16815260200190815260200160002060006101000a81548160ff0219169083600281111561090757fe5b02179055505b50565b60065481565b61092b81600654610a1d90919063ffffffff16565b60068190555050565b6000600281111561094157fe5b600360008373ffffffffffffffffffffffffffffffffffffffff1673ffffffffffffffffffffffffffffffffffffffff16815260200190815260200160002060009054906101000a900460ff16600281111561099957fe5b14610a00576000600360008373ffffffffffffffffffffffffffffffffffffffff1673ffffffffffffffffffffffffffffffffffffffff16815260200190815260200160002060006101000a81548160ff021916908360028111156109fa57fe5b02179055505b50565b6000818301905082811015610a1457fe5b80905092915050565b600082821115610a2957fe5b81830390509291505056fea165627a7a723058205edaf030b3efa60d40a7ec68667d748cba2bc53f1a72d9e7e954ac2586774ac60029",
  "source": "pragma solidity ^0.5.0;\n\nimport './helpers/SafeMath.sol';\n\ncontract Account {\n    using SafeMath for *;\n\n    enum AccountStatusType {\n        closed,\n        open\n    }\n\n    enum AccountAccumulationType {\n        Accumulation1,\n        Accumulation2,\n        DefinedBenefitDivision,\n        PersonalAccount,\n        Pension\n    }\n\n    enum DelegatedPermissionTypes {\n        none,\n        contributive,\n        administrative\n    }\n\n    // Most of these variables should be private, and updated through functions that check ownership permissions\n\n    address payable SuperAccountId; // contractID\n    address payable EmployeeId; // AccountHolder Address, used for permissions to update private variables\n    address public TaxOutputAddress; //Address controlled by UniSuper or ATO\n    mapping (address => DelegatedPermissionTypes) public DelegatePermissions; // List of Addresses that are allowed to contribute\n\n    uint public NetBalance;\n    uint public TimeTillReward;\n    uint public RewardSize;\n    uint public PayoutFrequency;\n\n\n    AccountStatusType public AccountStatus;\n    AccountAccumulationType AccountType;\n\n    constructor(address payable employeeId, AccountAccumulationType accountType) public {\n        SuperAccountId = address(this);\n        EmployeeId = employeeId;\n        AccountStatus = AccountStatusType.open;\n        AccountType = accountType;\n    }\n\n\n    function increaseRewardSize(uint rewardIncrement) public {\n        RewardSize = RewardSize.add(rewardIncrement);\n    }\n\n    function decreaseRewardSize(uint rewardIncrement) public {\n        RewardSize = RewardSize.sub(rewardIncrement);\n    }\n\n    function increasePayoutFrequency(uint payoutFrequencyIncrement) public {\n        PayoutFrequency = PayoutFrequency.add(payoutFrequencyIncrement);\n    }\n\n    function decreasePayoutFrequency(uint payoutFrequencyIncrement) public {\n        PayoutFrequency = PayoutFrequency.sub(payoutFrequencyIncrement);\n    }\n\n    function removeAllDelegatePermissions(address thirdPartyAddress) public {\n        if(DelegatePermissions[thirdPartyAddress] != DelegatedPermissionTypes.none) {\n            DelegatePermissions[thirdPartyAddress] = DelegatedPermissionTypes.none;\n        }\n    }\n\n    function permitToContributiveOnly(address thirdPartyAddress) public {\n        if(DelegatePermissions[thirdPartyAddress] != DelegatedPermissionTypes.none) {\n            DelegatePermissions[thirdPartyAddress] = DelegatedPermissionTypes.none;\n        }\n    }\n\n    function permitToAdmistrative(address thirdPartyAddress) public {\n        if(DelegatePermissions[thirdPartyAddress] != DelegatedPermissionTypes.none) {\n            DelegatePermissions[thirdPartyAddress] = DelegatedPermissionTypes.none;\n        }\n    }\n\n    function closeAccount() public {\n        require(msg.sender == EmployeeId, 'invalid authorisation');\n\n        AccountStatus = AccountStatusType.closed;\n    }\n\n    function transferFunds(address payable recieverAddress, uint amount) public {\n        if (msg.sender == EmployeeId && NetBalance < amount) {\n            // Add validation that address belongs to a type(SuperAccount)\n            NetBalance -= amount;\n            recieverAddress.transfer(amount);\n        }\n\n        // Add administrative abilities and behaviours\n\n    }\n\n    // Handles exceptions and received payments\n    function () external payable {\n        // This is bad, we need to add logic in order to handle who sends money to the account and what kind of transaction it is likely to be.\n        NetBalance += msg.value;\n    }\n}",
  "sourcePath": "C:\\Users\\DimitriKamenski\\Documents\\UNI\\unisuper-blockchain-poc\\contracts\\Account.sol",
  "compiler": {
    "name": "solc",
    "version": "0.5.8+commit.23d335f2.Emscripten.clang"
  },
  "schemaVersion": "3.0.11",
  "updatedAt": "2019-08-18T13:54:32.663Z",
  "devdoc": {
    "methods": {}
  },
  "userdoc": {
    "methods": {}
  }
}