{
  "contractName": "Employee",
  "abi": [
    {
      "constant": true,
      "inputs": [],
      "name": "DOB",
      "outputs": [
        {
          "name": "",
          "type": "string"
        }
      ],
      "payable": false,
      "stateMutability": "view",
      "type": "function"
    },
    {
      "constant": true,
      "inputs": [],
      "name": "SpouseId",
      "outputs": [
        {
          "name": "",
          "type": "address"
        }
      ],
      "payable": false,
      "stateMutability": "view",
      "type": "function"
    },
    {
      "constant": true,
      "inputs": [],
      "name": "PayoutAddress",
      "outputs": [
        {
          "name": "",
          "type": "address"
        }
      ],
      "payable": false,
      "stateMutability": "view",
      "type": "function"
    },
    {
      "constant": true,
      "inputs": [],
      "name": "EmployeeId",
      "outputs": [
        {
          "name": "",
          "type": "address"
        }
      ],
      "payable": false,
      "stateMutability": "view",
      "type": "function"
    },
    {
      "inputs": [
        {
          "name": "dob",
          "type": "string"
        }
      ],
      "payable": false,
      "stateMutability": "nonpayable",
      "type": "constructor"
    },
    {
      "payable": true,
      "stateMutability": "payable",
      "type": "fallback"
    },
    {
      "constant": false,
      "inputs": [
        {
          "name": "payoutAddress",
          "type": "address"
        }
      ],
      "name": "setPayoutAddress",
      "outputs": [],
      "payable": false,
      "stateMutability": "nonpayable",
      "type": "function"
    },
    {
      "constant": false,
      "inputs": [
        {
          "name": "spouseId",
          "type": "address"
        }
      ],
      "name": "addSpouse",
      "outputs": [],
      "payable": false,
      "stateMutability": "nonpayable",
      "type": "function"
    },
    {
      "constant": false,
      "inputs": [
        {
          "name": "spouseId",
          "type": "address"
        }
      ],
      "name": "removeSpouse",
      "outputs": [],
      "payable": false,
      "stateMutability": "nonpayable",
      "type": "function"
    },
    {
      "constant": false,
      "inputs": [
        {
          "name": "payoutAddress",
          "type": "address"
        }
      ],
      "name": "changePayoutAddress",
      "outputs": [],
      "payable": false,
      "stateMutability": "nonpayable",
      "type": "function"
    },
    {
      "constant": false,
      "inputs": [],
      "name": "createNewAccount",
      "outputs": [],
      "payable": false,
      "stateMutability": "nonpayable",
      "type": "function"
    },
    {
      "constant": false,
      "inputs": [
        {
          "name": "accountAddress",
          "type": "address"
        }
      ],
      "name": "deleteAccount",
      "outputs": [],
      "payable": false,
      "stateMutability": "nonpayable",
      "type": "function"
    },
    {
      "constant": false,
      "inputs": [
        {
          "name": "payTo",
          "type": "address"
        },
        {
          "name": "payFrom",
          "type": "address"
        },
        {
          "name": "amount",
          "type": "uint256"
        }
      ],
      "name": "transferFundsBetweenAccounts",
      "outputs": [],
      "payable": false,
      "stateMutability": "nonpayable",
      "type": "function"
    },
    {
      "constant": false,
      "inputs": [
        {
          "name": "accountAddress",
          "type": "address"
        },
        {
          "name": "amount",
          "type": "uint256"
        }
      ],
      "name": "payVoluntaryContribution",
      "outputs": [],
      "payable": false,
      "stateMutability": "nonpayable",
      "type": "function"
    }
  ],
  "bytecode": "0x608060405234801561001057600080fd5b5060405162001adc38038062001adc8339810180604052602081101561003557600080fd5b81019080805164010000000081111561004d57600080fd5b8281019050602081018481111561006357600080fd5b815185600182028301116401000000008211171561008057600080fd5b5050929190505050306000806101000a81548173ffffffffffffffffffffffffffffffffffffffff021916908373ffffffffffffffffffffffffffffffffffffffff16021790555080600390805190602001906100de9291906100e5565b505061018a565b828054600181600116156101000203166002900490600052602060002090601f016020900481019282601f1061012657805160ff1916838001178555610154565b82800160010185558215610154579182015b82811115610153578251825591602001919060010190610138565b5b5090506101619190610165565b5090565b61018791905b8082111561018357600081600090555060010161016b565b5090565b90565b611942806200019a6000396000f3fe6080604052600436106100a75760003560e01c806390f42f961161006457806390f42f96146102be5780639ae884cc14610315578063b4a0123914610366578063c4d430a5146103bd578063d3e5b9bb1461040e578063d5b4235514610469576100a7565b80630426c697146100a95780630870035f146100fa57806333ea51a8146101115780633e277877146101625780634c1b64cb146101f25780637ee7b62814610243575b005b3480156100b557600080fd5b506100f8600480360360208110156100cc57600080fd5b81019080803573ffffffffffffffffffffffffffffffffffffffff1690602001909291905050506104c0565b005b34801561010657600080fd5b5061010f610504565b005b34801561011d57600080fd5b506101606004803603602081101561013457600080fd5b81019080803573ffffffffffffffffffffffffffffffffffffffff169060200190929190505050610621565b005b34801561016e57600080fd5b50610177610665565b6040518080602001828103825283818151815260200191508051906020019080838360005b838110156101b757808201518184015260208101905061019c565b50505050905090810190601f1680156101e45780820380516001836020036101000a031916815260200191505b509250505060405180910390f35b3480156101fe57600080fd5b506102416004803603602081101561021557600080fd5b81019080803573ffffffffffffffffffffffffffffffffffffffff169060200190929190505050610703565b005b34801561024f57600080fd5b506102bc6004803603606081101561026657600080fd5b81019080803573ffffffffffffffffffffffffffffffffffffffff169060200190929190803573ffffffffffffffffffffffffffffffffffffffff16906020019092919080359060200190929190505050610827565b005b3480156102ca57600080fd5b506102d3610a28565b604051808273ffffffffffffffffffffffffffffffffffffffff1673ffffffffffffffffffffffffffffffffffffffff16815260200191505060405180910390f35b34801561032157600080fd5b506103646004803603602081101561033857600080fd5b81019080803573ffffffffffffffffffffffffffffffffffffffff169060200190929190505050610a4e565b005b34801561037257600080fd5b5061037b610b39565b604051808273ffffffffffffffffffffffffffffffffffffffff1673ffffffffffffffffffffffffffffffffffffffff16815260200191505060405180910390f35b3480156103c957600080fd5b5061040c600480360360208110156103e057600080fd5b81019080803573ffffffffffffffffffffffffffffffffffffffff169060200190929190505050610b5f565b005b34801561041a57600080fd5b506104676004803603604081101561043157600080fd5b81019080803573ffffffffffffffffffffffffffffffffffffffff16906020019092919080359060200190929190505050610c4b565b005b34801561047557600080fd5b5061047e610d0e565b604051808273ffffffffffffffffffffffffffffffffffffffff1673ffffffffffffffffffffffffffffffffffffffff16815260200191505060405180910390f35b80600260006101000a81548173ffffffffffffffffffffffffffffffffffffffff021916908373ffffffffffffffffffffffffffffffffffffffff16021790555050565b60008060009054906101000a900473ffffffffffffffffffffffffffffffffffffffff16600060405161053690610d33565b808373ffffffffffffffffffffffffffffffffffffffff1673ffffffffffffffffffffffffffffffffffffffff16815260200182600481111561057557fe5b60ff16815260200192505050604051809103906000f08015801561059d573d6000803e3d6000fd5b50905080600460008373ffffffffffffffffffffffffffffffffffffffff1673ffffffffffffffffffffffffffffffffffffffff16815260200190815260200160002060006101000a81548173ffffffffffffffffffffffffffffffffffffffff021916908373ffffffffffffffffffffffffffffffffffffffff16021790555050565b80600260006101000a81548173ffffffffffffffffffffffffffffffffffffffff021916908373ffffffffffffffffffffffffffffffffffffffff16021790555050565b60038054600181600116156101000203166002900480601f0160208091040260200160405190810160405280929190818152602001828054600181600116156101000203166002900480156106fb5780601f106106d0576101008083540402835291602001916106fb565b820191906000526020600020905b8154815290600101906020018083116106de57829003601f168201915b505050505081565b600460008273ffffffffffffffffffffffffffffffffffffffff1673ffffffffffffffffffffffffffffffffffffffff16815260200190815260200160002060009054906101000a900473ffffffffffffffffffffffffffffffffffffffff1673ffffffffffffffffffffffffffffffffffffffff16636dd22fc66040518163ffffffff1660e01b8152600401600060405180830381600087803b1580156107aa57600080fd5b505af11580156107be573d6000803e3d6000fd5b50505050600460008273ffffffffffffffffffffffffffffffffffffffff1673ffffffffffffffffffffffffffffffffffffffff16815260200190815260200160002060006101000a81549073ffffffffffffffffffffffffffffffffffffffff021916905550565b60018081111561083357fe5b600460008573ffffffffffffffffffffffffffffffffffffffff1673ffffffffffffffffffffffffffffffffffffffff16815260200190815260200160002060009054906101000a900473ffffffffffffffffffffffffffffffffffffffff1673ffffffffffffffffffffffffffffffffffffffff1663463da8be6040518163ffffffff1660e01b815260040160206040518083038186803b1580156108d857600080fd5b505afa1580156108ec573d6000803e3d6000fd5b505050506040513d602081101561090257600080fd5b8101908080519060200190929190505050600181111561091e57fe5b1415610a2357600460008373ffffffffffffffffffffffffffffffffffffffff1673ffffffffffffffffffffffffffffffffffffffff16815260200190815260200160002060009054906101000a900473ffffffffffffffffffffffffffffffffffffffff1673ffffffffffffffffffffffffffffffffffffffff1663990dc9db84836040518363ffffffff1660e01b8152600401808373ffffffffffffffffffffffffffffffffffffffff1673ffffffffffffffffffffffffffffffffffffffff16815260200182815260200192505050600060405180830381600087803b158015610a0a57600080fd5b505af1158015610a1e573d6000803e3d6000fd5b505050505b505050565b600160009054906101000a900473ffffffffffffffffffffffffffffffffffffffff1681565b600073ffffffffffffffffffffffffffffffffffffffff16600160009054906101000a900473ffffffffffffffffffffffffffffffffffffffff1673ffffffffffffffffffffffffffffffffffffffff1614610af5576040517f08c379a00000000000000000000000000000000000000000000000000000000081526004018080602001828103825260288152602001806118c56028913960400191505060405180910390fd5b80600160006101000a81548173ffffffffffffffffffffffffffffffffffffffff021916908373ffffffffffffffffffffffffffffffffffffffff16021790555050565b600260009054906101000a900473ffffffffffffffffffffffffffffffffffffffff1681565b600073ffffffffffffffffffffffffffffffffffffffff16600160009054906101000a900473ffffffffffffffffffffffffffffffffffffffff1673ffffffffffffffffffffffffffffffffffffffff161415610c07576040517f08c379a000000000000000000000000000000000000000000000000000000000815260040180806020018281038252602a8152602001806118ed602a913960400191505060405180910390fd5b80600160006101000a81548173ffffffffffffffffffffffffffffffffffffffff021916908373ffffffffffffffffffffffffffffffffffffffff16021790555050565b6000809054906101000a900473ffffffffffffffffffffffffffffffffffffffff1673ffffffffffffffffffffffffffffffffffffffff163373ffffffffffffffffffffffffffffffffffffffff16148015610cbd5750803073ffffffffffffffffffffffffffffffffffffffff1631115b15610d0a578173ffffffffffffffffffffffffffffffffffffffff166108fc829081150290604051600060405180830381858888f19350505050158015610d08573d6000803e3d6000fd5b505b5050565b6000809054906101000a900473ffffffffffffffffffffffffffffffffffffffff1681565b610b8480610d418339019056fe608060405234801561001057600080fd5b50604051604080610b848339810180604052604081101561003057600080fd5b810190808051906020019092919080519060200190929190505050306000806101000a81548173ffffffffffffffffffffffffffffffffffffffff021916908373ffffffffffffffffffffffffffffffffffffffff16021790555081600160006101000a81548173ffffffffffffffffffffffffffffffffffffffff021916908373ffffffffffffffffffffffffffffffffffffffff1602179055506001600860006101000a81548160ff021916908360018111156100eb57fe5b021790555080600860016101000a81548160ff0219169083600481111561010e57fe5b02179055505050610a60806101246000396000f3fe6080604052600436106100f35760003560e01c806383be1bf11161008a578063a98521a911610059578063a98521a9146103fd578063df50e19d1461044e578063dfd44a9514610479578063ebd2a864146104b4576100f3565b806383be1bf1146102fb578063990dc9db1461034c5780639aee2e9a146103a75780639e2c1b16146103d2576100f3565b80636dd22fc6116100c65780636dd22fc6146101fb5780636fd7eb61146102125780637d34602d146102855780637d57daad146102c0576100f3565b806326107a381461010557806326c698011461015c57806339bfba7e14610187578063463da8be146101c2575b34600460008282540192505081905550005b34801561011157600080fd5b5061011a610505565b604051808273ffffffffffffffffffffffffffffffffffffffff1673ffffffffffffffffffffffffffffffffffffffff16815260200191505060405180910390f35b34801561016857600080fd5b5061017161052b565b6040518082815260200191505060405180910390f35b34801561019357600080fd5b506101c0600480360360208110156101aa57600080fd5b8101908080359060200190929190505050610531565b005b3480156101ce57600080fd5b506101d761054f565b604051808260018111156101e757fe5b60ff16815260200191505060405180910390f35b34801561020757600080fd5b50610210610562565b005b34801561021e57600080fd5b506102616004803603602081101561023557600080fd5b81019080803573ffffffffffffffffffffffffffffffffffffffff16906020019092919050505061064b565b6040518082600281111561027157fe5b60ff16815260200191505060405180910390f35b34801561029157600080fd5b506102be600480360360208110156102a857600080fd5b810190808035906020019092919050505061066b565b005b3480156102cc57600080fd5b506102f9600480360360208110156102e357600080fd5b8101908080359060200190929190505050610689565b005b34801561030757600080fd5b5061034a6004803603602081101561031e57600080fd5b81019080803573ffffffffffffffffffffffffffffffffffffffff1690602001909291905050506106a7565b005b34801561035857600080fd5b506103a56004803603604081101561036f57600080fd5b81019080803573ffffffffffffffffffffffffffffffffffffffff16906020019092919080359060200190929190505050610776565b005b3480156103b357600080fd5b506103bc610835565b6040518082815260200191505060405180910390f35b3480156103de57600080fd5b506103e761083b565b6040518082815260200191505060405180910390f35b34801561040957600080fd5b5061044c6004803603602081101561042057600080fd5b81019080803573ffffffffffffffffffffffffffffffffffffffff169060200190929190505050610841565b005b34801561045a57600080fd5b50610463610910565b6040518082815260200191505060405180910390f35b34801561048557600080fd5b506104b26004803603602081101561049c57600080fd5b8101908080359060200190929190505050610916565b005b3480156104c057600080fd5b50610503600480360360208110156104d757600080fd5b81019080803573ffffffffffffffffffffffffffffffffffffffff169060200190929190505050610934565b005b600260009054906101000a900473ffffffffffffffffffffffffffffffffffffffff1681565b60055481565b61054681600654610a0390919063ffffffff16565b60068190555050565b600860009054906101000a900460ff1681565b600160009054906101000a900473ffffffffffffffffffffffffffffffffffffffff1673ffffffffffffffffffffffffffffffffffffffff163373ffffffffffffffffffffffffffffffffffffffff1614610625576040517f08c379a00000000000000000000000000000000000000000000000000000000081526004018080602001828103825260158152602001807f696e76616c696420617574686f7269736174696f6e000000000000000000000081525060200191505060405180910390fd5b6000600860006101000a81548160ff0219169083600181111561064457fe5b0217905550565b60036020528060005260406000206000915054906101000a900460ff1681565b61068081600754610a0390919063ffffffff16565b60078190555050565b61069e81600754610a1d90919063ffffffff16565b60078190555050565b600060028111156106b457fe5b600360008373ffffffffffffffffffffffffffffffffffffffff1673ffffffffffffffffffffffffffffffffffffffff16815260200190815260200160002060009054906101000a900460ff16600281111561070c57fe5b14610773576000600360008373ffffffffffffffffffffffffffffffffffffffff1673ffffffffffffffffffffffffffffffffffffffff16815260200190815260200160002060006101000a81548160ff0219169083600281111561076d57fe5b02179055505b50565b600160009054906101000a900473ffffffffffffffffffffffffffffffffffffffff1673ffffffffffffffffffffffffffffffffffffffff163373ffffffffffffffffffffffffffffffffffffffff161480156107d4575080600454105b1561083157806004600082825403925050819055508173ffffffffffffffffffffffffffffffffffffffff166108fc829081150290604051600060405180830381858888f1935050505015801561082f573d6000803e3d6000fd5b505b5050565b60075481565b60045481565b6000600281111561084e57fe5b600360008373ffffffffffffffffffffffffffffffffffffffff1673ffffffffffffffffffffffffffffffffffffffff16815260200190815260200160002060009054906101000a900460ff1660028111156108a657fe5b1461090d576000600360008373ffffffffffffffffffffffffffffffffffffffff1673ffffffffffffffffffffffffffffffffffffffff16815260200190815260200160002060006101000a81548160ff0219169083600281111561090757fe5b02179055505b50565b60065481565b61092b81600654610a1d90919063ffffffff16565b60068190555050565b6000600281111561094157fe5b600360008373ffffffffffffffffffffffffffffffffffffffff1673ffffffffffffffffffffffffffffffffffffffff16815260200190815260200160002060009054906101000a900460ff16600281111561099957fe5b14610a00576000600360008373ffffffffffffffffffffffffffffffffffffffff1673ffffffffffffffffffffffffffffffffffffffff16815260200190815260200160002060006101000a81548160ff021916908360028111156109fa57fe5b02179055505b50565b6000818301905082811015610a1457fe5b80905092915050565b600082821115610a2957fe5b81830390509291505056fea165627a7a723058205edaf030b3efa60d40a7ec68667d748cba2bc53f1a72d9e7e954ac2586774ac60029656d706c6f79656520616c72656164792068617320612073706f7573652072656769737465726564656d706c6f79656520646f6573206e6f74206861766520612073706f7573652072656769737465726564a165627a7a7230582002ea9f9a619ad1c255e65d26796535916928c01566c3979df770c53e888289830029",
  "source": "pragma solidity ^0.5.0;\n\nimport './helpers/SafeMath.sol';\nimport './Account.sol';\n\ncontract Employee {\n    using SafeMath for *;\n\n    enum AccountAccumulationType {\n        Accumulation1,\n        Accumulation2,\n        DefinedBenefitDivision,\n        PersonalAccount,\n        Pension\n    }\n\n    address payable public EmployeeId;\n    address public SpouseId;\n    address public PayoutAddress;\n    string public DOB;\n\n    mapping (address => Account) Accounts;\n\n\n    constructor(string memory dob) public {\n        EmployeeId = address(this);\n        DOB = dob;\n    }\n\n    function setPayoutAddress(address payable payoutAddress) public{\n        PayoutAddress = payoutAddress;\n    }\n\n    function addSpouse(address payable spouseId) public {\n        require(SpouseId == address(0), \"employee already has a spouse registered\");\n        SpouseId = spouseId;\n    }\n\n    function removeSpouse(address payable spouseId) public {\n        require(SpouseId != address(0), \"employee does not have a spouse registered\");\n        SpouseId = spouseId;\n    }\n\n    function changePayoutAddress(address payable payoutAddress) public{\n        PayoutAddress = payoutAddress;\n    }\n\n    function createNewAccount() public{\n        Account tempAccountStore = new Account(EmployeeId, Account.AccountAccumulationType.Accumulation1);\n        Accounts[address(tempAccountStore)] = tempAccountStore;\n    }\n\n    function deleteAccount(address accountAddress) public {\n        Accounts[accountAddress].closeAccount();\n        delete Accounts[accountAddress];\n    }\n\n    function transferFundsBetweenAccounts(address payable payTo, address payable payFrom, uint amount) public {\n        if(Accounts[payTo].AccountStatus() == Account.AccountStatusType.open){\n            Accounts[payFrom].transferFunds(payTo, amount);\n        }\n    }\n\n    function payVoluntaryContribution(address payable accountAddress, uint amount) public {\n        if (msg.sender == EmployeeId && address(this).balance > amount) {\n            accountAddress.transfer(amount);\n        }\n\n\n        // Add administrative abilities and behaviours\n\n    }\n\n    function () external payable {}\n}",
  "sourcePath": "C:/Users/DimitriKamenski/Documents/UNI/unisuper-blockchain-poc/contracts/Employee.sol",
  "compiler": {
    "name": "solc",
    "version": "0.5.8+commit.23d335f2.Emscripten.clang"
  },
  "schemaVersion": "3.0.11",
  "updatedAt": "2019-08-18T13:54:33.406Z",
  "devdoc": {
    "methods": {}
  },
  "userdoc": {
    "methods": {}
  }
}